:100A4C004F4B0020CAFDBEDDB0FCBDD3CAD5B4ED02
:100A5C00CEF32000B4ABB8D0C6F7C9CFC3BBD3D04C
:100A6C00CAD6D6B800C2BCC8EBD6B8CEC6CDBCCFA1
:100A7C00F1CAA7B0DC0020D6B8CEC6CCABB8C9BB87
:100A8C00F2CCABB5AD200020D6B8CEC6CCABCAAA42
:100A9C00BBF2CCABBAFD20002020D6B8CEC6CDBC64
:100AAC00CFF1CCABC2D220200020D6B8CEC6CCD849
:100ABC00D5F7B5E3CCABC9D92000202020D6B8CED1
:100ACC00C6B2BBC6A5C5E42020200020C3BBD3D032
:100ADC00CBD1CBF7B5BDD6B8CEC62000202020CCCC
:100AEC00D8D5F7BACFB2A2CAA7B0DC2000B5D8D6F9
:100AFC00B7D0F2BAC5B3ACB3F6B7B6CEA7002020C8
:100B0C00C9BEB3FDC4A3B0E5CAA7B0DC2020002049
:100B1C00C7E5BFD5D6B8CEC6BFE2CAA7B0DC2000A9
:100B2C00BBBAB3E5C7F8C4DACEDED3D0D0A7CDBC00
:100B3C000020B6C1D0B4464C415348B3F6B4ED20B6
:100B4C002000202020CEB4B6A8D2E5B4EDCEF32000
:100B5C002020002020CEDED0A7BCC4B4E6C6F7BA55
:100B6C00C520200020BCC4B4E6C6F7C4DAC8DDB486
:100B7C00EDCEF3200020BCC7CAC2B1BED2B3C2EBCB
:100B8C00B4EDCEF3200020202020D6B8CEC6BFE294
:100B9C00C2FA202020200020202020B5D8D6B7B4BF
:100BAC00EDCEF3202020200020B7B5BBD8C8B7C8A5
:100BBC00CFC2EBD3D0CEF32000C7EBB0B4CAD6D69D
:100BCC00B800D6B8CEC6D5FDB3A300C7EBD4D9B008
:100BDC00B4D2BBB4CE00B6D4B1C8C1BDB4CED6B8B5
:100BEC00CEC600B6D4B1C8B3C9B9A600B6D4B1C884
:100BFC00CAA7B0DC00C9FAB3C9D6B8CEC6C4A3B074
:100C0C00E500C9FAB3C9D6B8CEC6C4A3B0E5B3C91A
:100C1C00B9A600B0B43134BCD3B0B43135BCF50096
:100C2C00B0B43136B1A3B4E600303D3C49443C3D50
:100C3C0039390049443D002530326400C2BCC8EB50
:100C4C00D6B8CEC6B3C9B9A600D6B8CEC6C4A3BF53
:100C5C00E9B2E2CAD4B3CCD0F2003131BCFCCCED59
:100C6C00BCD3D6B8CEC6003132BCFCC9BEB3FDD69F
:100C7C00B8CEC6003133BCFCD1E9D6A4D6B8CEC6AA
:100C8C0000D6B8CEC6D1E9D6A4B3C9B9A60049449A
:100C9C003A2530326400D1E9D6A4CAA7B0DC0031C1
:100CAC0034BCD33135BCF53136C8B7C8CF0031327E
:100CBC00C7E5BFD5D6B8CEC6BFE2003131B7B5BB9C
:100CCC00D800C7E5BFD5D6B8CEC6BFE2B3C9B9A662
:100CDC0000C9BEB3FDD6B8CEC6B3C9B9A600C7EB22
:0A0CEC00CAE4C8EBC3DCC2EB3A0017
:1017DB00027500000466FFFFFFFF066000000000BB
:0217EB000000FC
:1019BE00759850758920758780758DFF758BFFD250
:0619CE00ACD2AFD28E2264
:0B19E900AF69AE68AD67AC661207BCCA
:0819F4008F993099FDC2992280
:0300230002177150
:0F177100C0E0C083C082C0D075D000C004C007E4
:10178000AF99C2980576E576AC757002057514249C
:0A17900000F58274003CF583EFF0D1
:0D179A00D007D004D0D0D082D083D0E03270
:04180D007F2C7E01AD
:10181100D3EF9400EE940040217D0A7C007B557A41
:1018210000EB1B70011AEB4A70F7ED1D70011CED06
:0A1831004C70EAEF1F70D91E80D63C
:01183B00228A
:0A1A74007FEF1219F47F010219F44C
:1000030078181219E978101219E9AF69AE68AD676B
:0F001300AC6678081207BC1219F4AF690219F431
:0A1A5000A907121A741200037F01A7
:031A5A000219F47A
:041A0F007F037E00D3
:0E1A1300AD07AC06ECFF1219F4AF050219F492
:031A7E000219F456
:0E1A4200AD07AC06AF041219F4AF050219F49B
:1013A100FDEC3EFCEA7E002DFFEE3CFE7C00EF2BC7
:0B13B100FFEC3EFE121A427FD07E07C8
:0413BC008E488F497F
:1013C000E4F54AF54B754CEF754D01AF69AE68AD6C
:1013D00067AC6678181207BC8F4EAF69AE68AD6710
:1013E000AC6678101207BC8F4FAF69AE68AD67ACC2
:1013F0006678081207BC8F50856951755207E4F56D
:1014000053F575F576E549154970021548144548B8
:1014100060307F017E00121811054BE54B7002050C
:101420004AD39464E54A940040DB75570075580030
:1014300075594C7B017A007900121560EA494B60BE
:08144000C4227B007A00790050
:011448002281
:1018B600121A52121A0F7F01121A7E7F051213B5E1
:1018C600EA494B600A90000912070DF53B80037543
:0418D6003BFFAF3BEA
:0118DA0022EB
:0217A700AB078E
:1017A900121A527F047E00121A137F02121A7EAF98
:1017B900031219F4EF2407FFEE331213B4EA494B6D
:1017C900600A90000912070DF53B8003753BFFAFD6
:0117D9003BD4
:0117DA0022EC
:1018DB00121A52121A0F7F03121A7E7F071213B5B8
:1018EB00EA494B600A90000912070DF53180037528
:0418FB0031FFAF31D9
:0118FF0022C6
:10190000121A52121A0F7F05121A7E7F091213B58E
:10191000EA494B600A90000912070DF53180037502
:0419200031FFAF31B3
:0119240022A0
:0416E300AB05AA04A5
:1016E700121A507F067E00121A137F06121A7EAF57
:1016F700011219F4AF021219F4AF031219F4EAFF39
:10170700E9240DFDE433CD2FFFEE3D1213ACEA497A
:101717004B600A90000912070DF53180037531FF00
:02172700AF31E0
:01172900229D
:081692008E2A8F2BAB05AA0480
:10169A00121A527F077E00121A137F0C121A7EE565
:1016AA002AFF1219F4AF2B1219F4AF021219F4AF70
:1016BA00031219F4E52A2414FFEE33FE7C00EF2509
:1016CA002B1213A1EA494B600A90000912070DF583
:0816DA002C8003752CFFAF2CDE
:0116E20022E5
:10192500121A52121A0F7F0D121A7E7F111213B559
:10193500EA494B600A90000912070DF52A800375E4
:041945002AFFAF2A9C
:01194900227B
:0412F7008C3C8D3D61
:1012FB00121A507F087E00121A137F1B121A7EAF30
:10130B00011219F4E53CFF1219F4AF3D1219F4AFB9
:10131B00021219F4AF031219F4E53CFFE92424FD82
:10132B00E433CD2FFFEE3DFE7C00EF253D1213A1E4
:10133B008B458A468947EA494B6052900009120750
:10134B000D754300F54490000A12070DFE90000B3B
:10135B0012070D7C002400FFEC3EAB40AA41A942D2
:10136B008FF0120770AB45AA46A94790000C1207E5
:10137B000DFE90000D12070D2400FFEC3EAB40AAB2
:10138B0041A9429000028FF012078F80067543002F
:05139B007544FFAF44A2
:0113A000222A
:100F8000EF1207CF0FCA000FD6010FE2020FEE03D8
:100F90000FFA04100605101206101E07102A08107A
:100FA000360910420A104E0B105710106211106DC6
:100FB00015107818108319108E1A10991B10A41C84
:100FC00010AF1F10BA20000010C57531FF75320A2E
:100FD00075334C0210CE7531FF75320A75334F02EE
:100FE00010CE7531FF75320A7533600210CE75313F
:100FF000FF75320A7533710210CE7531FF75320AF2
:101000007533820210CE7531FF75320A7533930243
:1010100010CE7531FF75320A7533A40210CE7531CA
:10102000FF75320A7533B50210CE7531FF75320A7D
:101030007533C60210CE7531FF75320A7533D7028B
:1010400010CE7531FF75320A7533E80210CE753156
:10105000FF75320A7533F97531FF75320B75330A36
:10106000806C7531FF75320B75331B80617531FFF4
:1010700075320B75332C80567531FF75320B753315
:101080003D804B7531FF75320B75334E80407531A5
:10109000FF75320B75335F80357531FF75320B7517
:1010A0003370802A7531FF75320B753381801F755F
:1010B00031FF75320B75339280147531FF75320B29
:1010C0007533A380097531FF75320B7533B4AB31BD
:0410D000AA32A93364
:0110D40022F9
:031A8100020F80D1
:100CF600E4F524F525F526E524146067147003024F
:100D06000DC3147003020E16147003020E5A240447
:100D16006003020F3205227BFF7A0B79C5753F040B
:100D26007F8012172A1218B68F23E5236003020F5D
:100D3600327F011217A78F23E5236003020F327F4C
:100D460001FE1218117BFF7A0B79CE753F047F8066
:100D560012172A7F647E00121811E4F52275240109
:100D6600020F3205227BFF7A0B79D7753F057F800C
:100D760012172A7F647E001218111218B68F23E507
:100D8600236003020F327F021217A78F23E5236029
:100D960003020F327F01FE1218117F01121A217B06
:100DA600FF7A0B79CE753F047F8012172A7F647E07
:100DB60000121811E4F522752402020F327F011287
:100DC6001A217BFF7A0B79E2753F067F8012172A7C
:100DD6001218DB8F23E5237F017016121A217BFF81
:100DE6007A0B79EF753F047F8012172A75240380EA
:100DF6001B121A217BFF7A0B79F8753F047F80124C
:100E0600172AAF23121A81E4F522F5247F2C803CA1
:100E16007F01121A217BFF7A0C7901753F067F80CC
:100E260012172A12180D1219008F23E52370187F46
:100E360001121A217BFF7A0C790E753F087F80120A
:100E4600172A7524048003E4F5247FF47E01121822
:100E560011020F327F01121A217BFF7A0C791F755E
:100E66003F077F8012172A7BFF7A0C792C753F0487
:100E76007F9012172A7BFF7A0C7935753F067F889B
:100E860012172AE4F525F526E579640F6071121428
:100E9600D58F79E579B40E16E4F579D3E526940075
:100EA600E52594004008E526152670021525E57906
:100EB600B40D16E4F579C3E5269463E52594005050
:100EC600080526E526700205257BFF7A0C793F7515
:100ED6003F027F9812172A753EFF753F0C754043F7
:100EE6008525418526427B007A00792712040D7BF1
:100EF600007A007927753F017F9B12172A8089E4C3
:100F0600F579AD26AC257F021216E38F23E5237013
:100F1600187F01121A217BFF7A0C7948753F067FEC
:100F26008012172A12180D8018E4F5247FC87E0057
:100F3600121811E522640A6003020CFD7F01121AE1
:100F4600217BFF7A0C7955753F087F8012172A7B23
:100F5600FF7A0C7966753F067F9012172A7BFF7A17
:100F66000C7973753F067F8812172A7BFF7A0C79F6
:090F760080753F067F9812172ACE
:010F7F00224F
:10121A00E579640A70030212B71214D58F7912188D
:10122A00B68F26E52670E97F011217A78F26E526D5
:10123A007065F5407541007542227B63FAFDFC7FBB
:10124A00011212F78F26E52670377BFF7A0C798D0B
:10125A00753F067F8012172A753EFF753F0C754051
:10126A009A8522418523427B007A00792712040D50
:10127A007B007A007927753F037F9012172A12188C
:10128A000DE526B409117BFF7A0C79A2753F047F1C
:10129A008012172A12180D7F01121A217BFF7A0B6E
:1012AA0079C5753F047F8012172A02121AE4F5796C
:1012BA007F01121A217BFF7A0C7955753F087F80CE
:1012CA0012172A7BFF7A0C7966753F067F901217F0
:1012DA002A7BFF7A0C7973753F067F8812172A7B5F
:0D12EA00FF7A0C7980753F067F9802172A65
:1010D500E4F523F5247BFF7A0C79AB753F067F8019
:1010E50012172A7BFF7A0C79BA753F067F90121783
:1010F5002A7BFF7A0C79C7753F037F880211A8E523
:1011050079640A70030211AE1214D58F79E579B4AA
:101115000E16E4F579D3E5249400E5239400400800
:10112500E524152470021523E579B40D16E4F57947
:10113500C3E5249463E523940050080524E5247051
:10114500020523E579640A70030211D9E579640B78
:101155007020F5791219258F22E52270707F011212
:101165001A217BFF7A0C79CE753F077F8012172AEB
:10117500805B7BFF7A0C793F753F027F9812172AB7
:10118500753EFF753F0C7540438523418524427BA1
:10119500007A00792512040D7B007A007925753FC8
:1011A500017F9A12172A0211047D017C00AF24AE3B
:1011B500231216928F22E52270137F01121A217BCA
:1011C500FF7A0C79DD753F067F8012172A7FC87E6E
:1011D500001218117F01121A217BFF7A0C795575BF
:1011E5003F087F8012172A7BFF7A0C7966753F06C8
:1011F5007F9012172A7BFF7A0C7973753F067F88DB
:1012050012172A7BFF7A0C7980753F067F98121793
:041215002AE4F57959
:0112190022B2
:1018670012196C7BFF7A0C79EA753F067F80121795
:101877002A1219BE1214D5120026C3E508648094F3
:081887008340F1121A3280ECDB
:1015E200313233343536003635343332310030005F
:1015F2003100320033003400350036003700C3DCDE
:10160200C2EBD5FDC8B73A00C3DCC2EBB4EDCEF3F2
:101612003A00C7EBCAE4C8EBC3DCC2EB3A00C3DC56
:10162200C2EBB4EDCEF3B4CECAFDB9FDB6E000C74D
:08163200EBB0B4CAD6D6B80033
:1017ED000313FF15E20316FF15E90A0900000000B7
:0C17FD00000000000000011900010800BD
:0B1A6900EF1FAC0670011E4C70F6224F
:10183C00D3EF9400EE940040217D0A7C007B557A16
:10184C0000EB1B70011AEB4A70F7ED1D70011CEDDB
:0A185C004C70EAEF1F70D91E80D611
:01186600225F
:0F1A3200E4FFB2B6E4FE000EBEFAFB0FBF64F392
:011A41002282
:1014D500E4F53BF53C75900FE590640F607A7FE885
:1014E5007E03121A69E590640F606D75900FAF90D9
:1014F500EF24F5601024FE601114601324077012A8
:10150500E4F53C800D753C018008753C028003754F
:101515003C037590F0AF90EF2450601124E060110A
:1015250024F0601124707013853C3C800E74048097
:101535000674088002740C253CF53CC3E53B6480C9
:1015450094E45011E59064F0600B7F2C7E01121A33
:0A15550069053B80E6AF3C227F10E1
:01155F002269
:10002600EFB40D0040030203B0900036F8282873A1
:1000360002005D0200A90200F402013F02018A02E9
:1000460001D502022002026A0202C002035B020319
:100056008A02039202039A7525FF7526157527F005
:100066007B007A00790912163A7B007A0079091228
:1000760019D47C007D0212073AED4C7B007A007998
:100086000960111219D47C007D0212073AEF04F5BB
:10009600190202B21219D47C007D0212073A8F1996
:1000A6000202B27525FF7526157527F27B007A00C8
:1000B600790912163A7B007A0079091219D47C0064
:1000C6007D0212073AED4C7B007A00790960101226
:1000D60019D47C007D0212073AEF04F519800C1240
:1000E60019D47C007D0212073A8F190202B27525D7
:1000F600FF7526157527F47B007A00790912163AE2
:100106007B007A0079091219D47C007D0212073A25
:10011600ED4C7B007A00790960101219D47C007DC1
:100126000212073AEF04F519800C1219D47C007DEF
:100136000212073A8F190202B27525FF7526157548
:1001460027F67B007A00790912163A7B007A007945
:10015600091219D47C007D0212073AED4C7B007A15
:1001660000790960101219D47C007D0212073AEF5B
:1001760004F519800C1219D47C007D0212073A8FFF
:10018600190202B27525FF7526157527F87B007AC8
:1001960000790912163A7B007A0079091219D47C83
:1001A600007D0212073AED4C7B007A007909601057
:1001B6001219D47C007D0212073AEF04F519800C5F
:1001C6001219D47C007D0212073A8F190202B27509
:1001D60025FF7526157527FA7B007A007909121610
:1001E6003A7B007A0079091219D47C007D02120745
:1001F6003AED4C7B007A00790960101219D47C0024
:100206007D0212073AEF04F519800C1219D47C000E
:100216007D0212073A8F190202B27525FF7526155F
:100226007527FC7B007A00790912163A7B007A0062
:1002360079091219D47C007D0212073AED4C7B0035
:100246007A00790960101219D47C007D0212073AEF
:10025600EF04F519800C1219D47C007D0212073ABE
:100266008F1980487525FF7526157527FE7B007A40
:1002760000790912163A7B007A0079091219D47CA2
:10028600007D0212073AED4C7B007A007909601076
:100296001219D47C007D0212073AEF04F519800C7E
:1002A6001219D47C007D0212073A8F197B007A005E
:1002B600790985193F7F9002035878097C007D00F3
:1002C600AB13AA14A915120973EF601278097C0002
:1002D6007D00AB16AA17A918120973EF70277F01C4
:1002E600121A217BFF7A167900753F047F80121758
:1002F6002A7E007F0A7D007B007A00790912099028
:10030600E4F50880247F01121A217BFF7A16790A08
:10031600753F047F8012172A7E007F0A7D007B00CE
:100326007A00790912099005087FF47E0112183CBB
:100336007F01121A21C3E508648094837BFF50096C
:100346007A167914753F0680077A167920753F0864
:100356007F8002172A7E007F0A7D007B007A007963
:10036600091209907F01121A217BFF7A16791475FA
:100376003F067F8012172AC3E50864809483402ACB
:10038600E4F508227F01121A21020CF67F01121AE7
:10039600210210D57F01121A217BFF7A1679317559
:0B03A6003F047F8012172A12121A2257
:03180900011AFAC7
:0B1A5D00E4FFEFC3951A50030F80F761
:011A6800225B
:04198D00AD07AC06F0
:101991007E01EED39DEC6480F87480985006121A93
:0419A1005D0E80EE69
:0119A500221F
:1019A600C287D286121A5D75A0FFD285AEA0121A22
:0819B6005DC285EE20E7F0227E
:101A2100AD071219A6C2868DA0121A5DD285C28594
:011A31002292
:1019FC00AD071219A6D287C2868DA0121A5DD285A8
:031A0C00C285226E
:10196C00D284D283C283D2837F30121A217F061293
:10197C001A217F01121A217F0C121A217F02021ADE
:01198C002139
:06172A008B3C8A3D893E64
:10173000121A21E4FCECC3953F5035AB3CAA3DA9FD
:101740003E75F002ECA4F58285F08312070DFF12BE
:1017500019FCAB3CAA3DA93E75F002ECA42401F5AE
:1017600082E435F0F58312070DFF1219FC0C80C5D9
:011770002256
:04194A00AC05AA0737
:10194E00E4F9E9C39B5016AF02121A21EC29FF12DB
:0D195E0019FC09EC29FF1219FC0A0980E5AB
:01196B002259
:030000000214499E
:0C144900787FE4F6D8FD758179021490DC
:10070D00BB010CE58229F582E5833AF583E02250A1
:10071D0006E92582F8E622BBFE06E92582F8E222EB
:0D072D00E58229F582E5833AF583E4932205
:10073A00C2D5EC30E709B2D5E4C39DFDE49CFCEEDA
:10074A0030E715B2D5E4C39FFFE49EFE1209E7C362
:10075A00E49DFDE49CFC80031209E730D507C3E45D
:06076A009FFFE49EFE2249
:10077000BB010A89828A83F0E5F0A3F0225006F7D4
:0F07800009A7F01922BBFE06F3E5F009F31922D1
:10078F00F8BB0111E58229F582E5833AF583E8F09C
:10079F00E5F0A3F0225009E92582C8F608A6F02259
:0D07AF00BBFE09E92582C8F2E5F008F22240
:1007BC00E8600FECC313FCED13FDEE13FEEF13FF1B
:0307CC00D8F1223F
:1007CF00D083D082F8E4937012740193700DA3A3B9
:1007DF0093F8740193F5828883E4737402936860CD
:0607EF00EFA3A3A380DFCD
:1003B100E54A243EF8E6054A22783B300702783EBA
:1003C100E475F001120A3C0209BC2000EB7F2ED239
:1003D100008018EF540F2490D43440D4FF30040B24
:1003E100EF24BFB41A0050032461FFE54B600215EE
:1003F1004B054EE54E7002054D30070D783BE47517
:10040100F001120A3CEF0209D502188F7403D207DA
:100411008003E4C207F54A8B3B8A3C893DE4F54BF6
:10042100F54DF54EE54B60077F201203EC80F57525
:100431004CFFC201C200C202C203C205C206C20809
:100441001203BAFF700D3007057F001203FDAF4E96
:10045100AE4D22B4255FC2D5C2041203BAFF24D027
:10046100B40A00501A75F00A784B30D50508B6FF6A
:100471000106C6A426F620D5047002D20380D92431
:10048100CFB41A00EF5004C2E5D2040205FDD20137
:1004910080C6D20080C0D20280BCD2D580BAD2053B
:1004A10080B47F201203EC2002077401B54B004099
:1004B100F11203B1FF1203EC020425D208D2068027
:1004C100951203B1FB1203B1FA1203B1F94A4B7051
:1004D1000679CE7A067BFF20022EE54B602A7E004C
:1004E1008E8275830012070D60060EEE654C70F06A
:1004F100C2D5EBC0E0EAC0E0E9C0E0EE120644D0AC
:10050100E0F9D0E0FAD0E0FB1209BCFF60AAEBC031
:10051100E0EAC0E0E9C0E01203ECD0E02401F9D048
:10052100E03400FAD0E0FBE54C0460DCD54CD98026
:10053100877BFF7A067940D202809C79108002790C
:1005410008C206C2088008D2D5790A8004790AC295
:10055100D5E54C047002F54CE4FAFDFEFF1203B13F
:10056100FC7B082001131203B1FD7B1030000A123D
:1005710003B1FE1203B1FF7B20EC3382D592D5503B
:1005810013C3E43000069FFFE49EFEE42001039DB7
:10059100FDE49CFCE4CBF8C201EC700CCFCECDCCD9
:1005A100E824F8F870F38017C3EF33FFEE33FEED64
:1005B10033FDEC33FCEB33FB994002FB0FD8E9EB45
:1005C100300105F8D0E0C448B201C0E00AEC4D4E5C
:1005D1004F78207B0070C2EAB54C0040BCC0E012ED
:1005E1000646D0F0D0E0200104C4C0E0C4B201C08E
:1005F100F01203D5D0F0D5F0EB0204251207CF0499
:10060100C253053C5804934C048F4205404F0548A2
:0F0611004405484904A843054E550532460532B5
:100620004505324706EE5004972D049B2E04BE2B41
:10063000049F2304BC2006D72A045748000004B6B0
:100640003F3F3F00790AA2D5200314300509B910B5
:10065000020404B9080104A2D520060250010420B6
:1006600002689202B54B005034C0E07F203003197D
:100670007F30A20272067205500F12069DC202C29E
:1006800006C205C2087F30800F300503E9C0E012C2
:1006900003EC300503D0E0F9D0E0B54BCC300517C2
:1006A0007F30B9100C1203EC7F583004077F78803C
:1006B00003B908031203EC3002057F2D0203EC7F1F
:1006C000202008F87F2B2006F322920280CF286E8C
:1006D000756C6C2900D2011203B13001F8C20178A7
:1006E0004B30D50108F60204572D504349581203E8
:1006F000B12403B405004001E49006E9931203DD40
:0D070000743A1203DDD203754B0402053C70
:10163A008B228A2389248B288A29892AAB2205248A
:10164A00E524AA237002052314F91209BC70ED746B
:10165A00FF2524F52474FF3523F523AB250527E55B
:10166A0027AA267002052614F91209BCFFAB220527
:10167A0024E524AA237002052314F9EF1209D57070
:08168A00DAAB28AA29A92A22E3
:1007F500E3F5F009E208B5F06D606B80F3E3F5F021
:1008050009E608B5F060605E80F387F009E608B593
:10081500F054605280F487F009E208B5F04860466C
:1008250080F488828C8387F009E0A3B5F0386036C0
:1008350080F488828C8387F009E493A3B5F0276060
:100845002580F388828C83E3F5F009E0A3B5F016E3
:10085500601480F388828C83E3F5F009E493A3B5F3
:10086500F004600280F2020920808580E7808E8096
:10087500D2803C8015806C807E809B80B5808B808B
:10088500A1804F8070803A02092C89828A83ECFA14
:10089500E493F5F0A3C8C582C8CCC583CCE493A383
:1008A500C8C582C8CCC583CCB5F070606E80E189BF
:1008B500828A83E493F5F0A3E208B5F05E605C807C
:1008C500F289828A83E0F5F0A3E608B5F04D604B26
:1008D50080F389828A83E0F5F0A3E208B5F03C60F5
:1008E5003A80F389828A83E493F5F0A3E608B5F0AC
:1008F5002A602880F2805389828A83ECFAE493F592
:10090500F0A3C8C582C8CCC583CCE0A3C8C582C83E
:10091500CCC583CCB5F004600280E27FFFB5F00260
:100925000F2240027F012289828A83ECFAE0F5F0EA
:10093500A3C8C582C8CCC583CCE0A3C8C582C8CC32
:10094500C583CCB5F0D560D380E389828A83ECFA80
:10095500E0F5F0A3C8C582C8CCC583CCE493A3C891
:10096500C582C8CCC583CCB5F0B160AF80E288F054
:10097500ED2402B4040050A3F582EB2402B4040074
:0B0985005099232345822390086E73D5
:1019D400E4FFFE1209BC600C0FEF70010E09E97000
:0519E400F20A80EF2271
:101560008B548A558956AB57AA58A9591209BC60A1
:1015700063AB54AA55A9561209BC605F85575A85BA
:10158000585B85595C8B5D8A5E895FAB5AAA5BA903
:101590005C1209BCFF6023AB5DAA5EA95F1209BCA7
:1015A0006F701704255CF55CE4355BF55B74012511
:1015B0005FF55FE4355EF55E80D1AB5AAA5BA95C4E
:1015C0001209BC7002800D74012556F556E435559C
:1015D000F555809DAB54AA55A956227B007A007917
:0215E0000022E7
:10099000EF4E6012EF60010EEDBB010B89828A837E
:1009A000F0A3DFFCDEFA2289F05007F709DFFCA98B
:0C09B000F022BBFEFCF309DFFCA9F022E2
:10145500021867E493A3F8E493A34003F68001F22E
:1014650008DFF48029E493A3F85407240CC8C33398
:10147500C4540F4420C8834004F456800146F6DF67
:10148500E4800B01020408102040809017DBE47E05
:10149500019360BCA3FF543F30E509541FFEE4935C
:1014A500A360010ECF54C025E060A840B8E493A323
:1014B500FAE493A3F8E493A3C8C582C8CAC583CA4E
:1014C500F0A3C8C582C8CAC583CADFE9DEE780BE06
:01180C0000DB
:1009BC00BB010689828A83E0225002E722BBFE0239
:0909CC00E32289828A83E493226C
:1009D500BB010689828A83F0225002F722BBFE0101
:0209E500F322FB
:1009E700BC000BBE0029EF8DF084FFADF022E4CCF4
:1009F700F875F008EF2FFFEE33FEEC33FCEE9DECBD
:100A0700984005FCEE9DFE0FD5F0E9E4CEFD22ED02
:100A1700F8F5F0EE8420D21CFEADF075F008EF2F4C
:100A2700FFED33FD4007985006D5F0F222C398FD3D
:050A37000FD5F0EA22DA
:100A3C00FAE6FB0808E6F925F0F618E6CA3AF622BB
:10188F00EFB40A07740D12189A740A309811A899B8
:10189F00B8130CC2983098FDA899C298B811F630B9
:0718AF0099FDC299F5992291
:00000001FF
